:10095600C103C101C102C104C100010800010C00AC
:0C096600010D00010A00010900010B3224
:10097300D2AFD2A9D2AA5389F0438902758C3875B4
:070983008A38D28CD28A22CF
:030013000209944B
:03099400D200325C
:03000B0002098A5D
:0A098A00050A050D300102050932CF
:10080000120973C29020911520021AB290D20230C0
:100810009007E4F509D201800CC2018008309105EF
:10082000300202C202E50A64647004F50A050C3065
:100830000026C3E50D9419748094804012D3E50C12
:1008400094197480948050070508E4F50D8007E43E
:10085000F50CF50DF508C200E50864027010209053
:1008600006D290D2018004C290C201E4F50820B201
:100870001D20041AD3E50B940A74809480400874F8
:10088000F6250BF50B8003750B32D204800830B2CD
:1008900005300402C204200103020805E509D395CE
:1008A0000B400FE5099432748094805005C2900289
:1008B0000805C3E5099432748094804008E4F50982
:0A08C000D290020805D2900208054C
:030000000208CA29
:0C08CA00787FE4F6D8FD7581200209114A
:1008D600020800E493A3F8E493A34003F68001F230
:1008E60008DFF48029E493A3F85407240CC8C33323
:1008F600C4540F4420C8834004F456800146F6DFF2
:10090600E4800B0102040810204080900956E47E22
:10091600019360BCA3FF543F30E509541FFEE493E6
:10092600A360010ECF54C025E060A840B8E493A3AD
:10093600FAE493A3F8E493A3C8C582C8CAC583CAD8
:10094600F0A3C8C582C8CAC583CADFE9DEE780BE90
:010972000084
:00000001FF
